:020000040000FA
:08000000803102288731F52F41
:100C640071082000DE007008DD0008007108200013
:100C7400E2007008E100080071082000E00070083C
:100C8400DF000800F1007108863161268631080012
:100C9400640080010131890B4B2E00342F00960132
:100CA4009701980199019A019B0108007030310065
:100CB4008D008F0191010230930092010800F00031
:100CC4002E000F1E662E672E622E700822009A00D8
:100CD400080086315026863187313B27863186319C
:100CE4005826863186318A26863108005830FD0020
:100CF4007D082000DA005708CF005608CE005A308D
:100D0400FD007D08D00000308631D42686310800ED
:100D1400083022009F0090309D0024309E00A030B7
:100D24009B0001309C000030F0000030F10086315F
:100D3400382686310030F0000030F10086313E263E
:100D440086310030F0000030F100863132268631E1
:100D54002000C801080086316B268631031020006C
:100D6400971E03140318B72EBA2E20009716BC2E14
:100D74002000971215302000DC004B30DB00BE3021
:100D8400890BC22EDB0BC22EDC0BC22E00000030FE
:100D94002000D6008830D700863178268631B02EE0
:100DA400803102282000D3004F08D5004E08D4001B
:100DB400C001C101EE2E5430D1005108FA00500890
:100DC400D2005208FB00530887317B2786317A080A
:100DD4002000C0077B08C13D5408840055088500E5
:100DE4001200031DF62EF72EDD2E4108CF00400819
:100DF400CE00080074080319002F012F062F740871
:100E0400031D052F062F0B2F7208863144268631C9
:100E14003A2F7408033E8600870116000104031963
:100E2400142F152F322F7408033E86008701403F8C
:100E3400F500413FF600740A86008701403FF70041
:100E4400413FF8007808803AF9007608803A790240
:100E5400031D2E2F750877020318312F322F3A2FD6
:100E6400740A860087010130810741310318810A21
:100E7400080020009A019901960197019801073012
:100E84009500FF309100DF309200BF309300FF30B7
:100E94009400FF303E00D9007F30CE00FF30C30005
:100EA4000730E400FF30B800DA01E501C401B901FC
:100EB400CF01E601BA01C501D001DB01FF30BB005F
:100EC400FF30C600FF30D100FF30DC000730E70000
:100ED400FF30BC00FF30C700FF30D200FF30DD0020
:100EE4000730E80017303D00CB0010303E00A6006C
:100EF4000800FC007A0886008701403F2000C900F2
:100F0400413FCA00490884004A0885001200253A76
:100F1400031D8D2F8E2FD22F7A0886008701013072
:100F2400810741310318810AC201C301C601C70107
:100F3400FF30C400FF30C5007A0886008701403FB7
:100F4400C900413FCA00490884004A0885001200CC
:100F5400253A031DAE2FAF2FC72F7A0886008701CD
:100F64000130810741310318810A2530F200003035
:100F7400F3007C08C9004908F4008631FC26873157
:100F84000130FA000030FB00F42F7A088600870154
:100F94000130810741310318810AFA01FB01F42F62
:100FA4007A0886008701403FC900413FCA004908CA
:100FB40084004A0885000008CB00CC014B08F200ED
:100FC4004C08F3007C08CD004D08F4008631FC2663
:100FD40087317A088600870101308107413103187F
:100FE400810AC22F08002030840000308500293097
:100FF40086314A26873120008631AD2E48346F343D
:101004006C34613420344D3475346E3464346F344C
:061014000D340A34003423
:020000040001F9
:0A000E00FA3FFF3F9F3FFF3FFF3F17
:00000001FF
